{
  "_format": "hh-sol-artifact-1",
  "contractName": "Bridge",
  "sourceName": "contracts/Bridge.sol",
  "abi": [
    {
      "anonymous": false,
      "inputs": [
        {
          "indexed": true,
          "internalType": "address",
          "name": "requester",
          "type": "address"
        }
      ],
      "name": "RandomNumberRequested",
      "type": "event"
    },
    {
      "inputs": [
        {
          "internalType": "address",
          "name": "requester",
          "type": "address"
        },
        {
          "internalType": "uint256[]",
          "name": "_randomNumbers",
          "type": "uint256[]"
        }
      ],
      "name": "forwardRandomNumbers",
      "outputs": [],
      "stateMutability": "nonpayable",
      "type": "function"
    },
    {
      "inputs": [],
      "name": "requestRandomNumbers",
      "outputs": [],
      "stateMutability": "nonpayable",
      "type": "function"
    }
  ],
  "bytecode": "0x608060405234801561001057600080fd5b50610549806100206000396000f3fe608060405234801561001057600080fd5b50600436106100365760003560e01c806346416f081461003b578063eaaa8b6714610045575b600080fd5b610043610061565b005b61005f600480360381019061005a919061035a565b6100a6565b005b3373ffffffffffffffffffffffffffffffffffffffff167fc68afbd9f729ae14c88373100f694ff8443149d92fe4db8a146b307c06da51d260405160405180910390a2565b60008151116100ea576040517f08c379a00000000000000000000000000000000000000000000000000000000081526004016100e190610413565b60405180910390fd5b8173ffffffffffffffffffffffffffffffffffffffff1663e2ba867e826040518263ffffffff1660e01b815260040161012391906104f1565b600060405180830381600087803b15801561013d57600080fd5b505af1158015610151573d6000803e3d6000fd5b505050505050565b6000604051905090565b600080fd5b600080fd5b600073ffffffffffffffffffffffffffffffffffffffff82169050919050565b60006101988261016d565b9050919050565b6101a88161018d565b81146101b357600080fd5b50565b6000813590506101c58161019f565b92915050565b600080fd5b6000601f19601f8301169050919050565b7f4e487b7100000000000000000000000000000000000000000000000000000000600052604160045260246000fd5b610219826101d0565b810181811067ffffffffffffffff82111715610238576102376101e1565b5b80604052505050565b600061024b610159565b90506102578282610210565b919050565b600067ffffffffffffffff821115610277576102766101e1565b5b602082029050602081019050919050565b600080fd5b6000819050919050565b6102a08161028d565b81146102ab57600080fd5b50565b6000813590506102bd81610297565b92915050565b60006102d66102d18461025c565b610241565b905080838252602082019050602084028301858111156102f9576102f8610288565b5b835b81811015610322578061030e88826102ae565b8452602084019350506020810190506102fb565b5050509392505050565b600082601f830112610341576103406101cb565b5b81356103518482602086016102c3565b91505092915050565b6000806040838503121561037157610370610163565b5b600061037f858286016101b6565b925050602083013567ffffffffffffffff8111156103a05761039f610168565b5b6103ac8582860161032c565b9150509250929050565b600082825260208201905092915050565b7f4e6f2072616e646f6d206e756d626572732070726f7669646564000000000000600082015250565b60006103fd601a836103b6565b9150610408826103c7565b602082019050919050565b6000602082019050818103600083015261042c816103f0565b9050919050565b600081519050919050565b600082825260208201905092915050565b6000819050602082019050919050565b6104688161028d565b82525050565b600061047a838361045f565b60208301905092915050565b6000602082019050919050565b600061049e82610433565b6104a8818561043e565b93506104b38361044f565b8060005b838110156104e45781516104cb888261046e565b97506104d683610486565b9250506001810190506104b7565b5085935050505092915050565b6000602082019050818103600083015261050b8184610493565b90509291505056fea264697066735822122087583d2cced1388035a36543cdbafc259ca8530219747236dee3ce007836bf7a64736f6c63430008120033",
  "linkReferences": {},
  "deployedLinkReferences": {}
}