{
  "_format": "hh-sol-artifact-1",
  "contractName": "Bridge",
  "sourceName": "contracts/Bridge.sol",
  "abi": [
    {
      "inputs": [],
      "name": "counter",
      "outputs": [
        {
          "internalType": "uint256",
          "name": "",
          "type": "uint256"
        }
      ],
      "stateMutability": "view",
      "type": "function"
    },
    {
      "inputs": [],
      "name": "getRandomNumber",
      "outputs": [
        {
          "internalType": "uint256",
          "name": "",
          "type": "uint256"
        }
      ],
      "stateMutability": "nonpayable",
      "type": "function"
    },
    {
      "inputs": [
        {
          "internalType": "uint256",
          "name": "",
          "type": "uint256"
        }
      ],
      "name": "randomNumbers",
      "outputs": [
        {
          "internalType": "uint256",
          "name": "",
          "type": "uint256"
        }
      ],
      "stateMutability": "view",
      "type": "function"
    },
    {
      "inputs": [
        {
          "internalType": "uint256[]",
          "name": "_randomNumbers",
          "type": "uint256[]"
        }
      ],
      "name": "receiveRandomNumbers",
      "outputs": [],
      "stateMutability": "nonpayable",
      "type": "function"
    }
  ],
  "bytecode": "0x608060405234801561001057600080fd5b50610762806100206000396000f3fe608060405234801561001057600080fd5b506004361061004c5760003560e01c80635257cd901461005157806361bc221a14610081578063dbdff2c11461009f578063e2ba867e146100bd575b600080fd5b61006b60048036038101906100669190610345565b6100d9565b6040516100789190610381565b60405180910390f35b6100896100fd565b6040516100969190610381565b60405180910390f35b6100a7610103565b6040516100b49190610381565b60405180910390f35b6100d760048036038101906100d291906104f5565b610187565b005b600081815481106100e957600080fd5b906000526020600020016000915090505481565b60015481565b600080805490506001541061014d576040517f08c379a00000000000000000000000000000000000000000000000000000000081526004016101449061059b565b60405180910390fd5b600060016000815480929190610162906105ea565b919050558154811061017757610176610632565b5b9060005260206000200154905090565b6101aa6040518060600160405280602d8152602001610700602d913982516101cc565b80600090805190602001906101c0929190610291565b50600060018190555050565b61026482826040516024016101e29291906106cf565b6040516020818303038152906040527fb60e72cc000000000000000000000000000000000000000000000000000000007bffffffffffffffffffffffffffffffffffffffffffffffffffffffff19166020820180517bffffffffffffffffffffffffffffffffffffffffffffffffffffffff8381831617835250505050610268565b5050565b60008151905060006a636f6e736f6c652e6c6f679050602083016000808483855afa5050505050565b8280548282559060005260206000209081019282156102cd579160200282015b828111156102cc5782518255916020019190600101906102b1565b5b5090506102da91906102de565b5090565b5b808211156102f75760008160009055506001016102df565b5090565b6000604051905090565b600080fd5b600080fd5b6000819050919050565b6103228161030f565b811461032d57600080fd5b50565b60008135905061033f81610319565b92915050565b60006020828403121561035b5761035a610305565b5b600061036984828501610330565b91505092915050565b61037b8161030f565b82525050565b60006020820190506103966000830184610372565b92915050565b600080fd5b6000601f19601f8301169050919050565b7f4e487b7100000000000000000000000000000000000000000000000000000000600052604160045260246000fd5b6103ea826103a1565b810181811067ffffffffffffffff82111715610409576104086103b2565b5b80604052505050565b600061041c6102fb565b905061042882826103e1565b919050565b600067ffffffffffffffff821115610448576104476103b2565b5b602082029050602081019050919050565b600080fd5b600061047161046c8461042d565b610412565b9050808382526020820190506020840283018581111561049457610493610459565b5b835b818110156104bd57806104a98882610330565b845260208401935050602081019050610496565b5050509392505050565b600082601f8301126104dc576104db61039c565b5b81356104ec84826020860161045e565b91505092915050565b60006020828403121561050b5761050a610305565b5b600082013567ffffffffffffffff8111156105295761052861030a565b5b610535848285016104c7565b91505092915050565b600082825260208201905092915050565b7f416c6c206e756d626572732068617665206265656e2072657475726e65640000600082015250565b6000610585601e8361053e565b91506105908261054f565b602082019050919050565b600060208201905081810360008301526105b481610578565b9050919050565b7f4e487b7100000000000000000000000000000000000000000000000000000000600052601160045260246000fd5b60006105f58261030f565b91507fffffffffffffffffffffffffffffffffffffffffffffffffffffffffffffffff8203610627576106266105bb565b5b600182019050919050565b7f4e487b7100000000000000000000000000000000000000000000000000000000600052603260045260246000fd5b600081519050919050565b60005b8381101561068a57808201518184015260208101905061066f565b60008484015250505050565b60006106a182610661565b6106ab818561053e565b93506106bb81856020860161066c565b6106c4816103a1565b840191505092915050565b600060408201905081810360008301526106e98185610696565b90506106f86020830184610372565b939250505056fe52656365697665642072616e646f6d206e756d6265727321204e756d626572206f6620656c656d656e74733a20a26469706673582212203c8dfd2a8241d8a0004315ab3938479b82bbbd33b673ae496223bf1b37c4639164736f6c63430008120033",
  "linkReferences": {},
  "deployedLinkReferences": {}
}